{
  "_format": "hh-sol-artifact-1",
  "contractName": "AllowedContractRegistry",
  "sourceName": "contracts/AllowedContractRegistry.sol",
  "abi": [
    {
      "inputs": [],
      "name": "ADD_CONTRACT_PERMISSION",
      "outputs": [
        {
          "internalType": "string",
          "name": "",
          "type": "string"
        }
      ],
      "stateMutability": "view",
      "type": "function"
    },
    {
      "inputs": [],
      "name": "ALLOWED_CONTRACT_REGISTRY_RESOURCE",
      "outputs": [
        {
          "internalType": "string",
          "name": "",
          "type": "string"
        }
      ],
      "stateMutability": "view",
      "type": "function"
    },
    {
      "inputs": [],
      "name": "SWITCH_FLAG_PERMISSION",
      "outputs": [
        {
          "internalType": "string",
          "name": "",
          "type": "string"
        }
      ],
      "stateMutability": "view",
      "type": "function"
    },
    {
      "inputs": [
        {
          "internalType": "bytes32",
          "name": "hash_",
          "type": "bytes32"
        }
      ],
      "name": "addAllowedContract",
      "outputs": [],
      "stateMutability": "nonpayable",
      "type": "function"
    },
    {
      "inputs": [],
      "name": "getInjector",
      "outputs": [
        {
          "internalType": "address",
          "name": "injector_",
          "type": "address"
        }
      ],
      "stateMutability": "view",
      "type": "function"
    },
    {
      "inputs": [
        {
          "internalType": "bytes32",
          "name": "hash_",
          "type": "bytes32"
        }
      ],
      "name": "isAllowedToDeploy",
      "outputs": [
        {
          "internalType": "bool",
          "name": "",
          "type": "bool"
        }
      ],
      "stateMutability": "view",
      "type": "function"
    },
    {
      "inputs": [
        {
          "internalType": "bytes32",
          "name": "hash_",
          "type": "bytes32"
        }
      ],
      "name": "isDeployed",
      "outputs": [
        {
          "internalType": "bool",
          "name": "",
          "type": "bool"
        }
      ],
      "stateMutability": "view",
      "type": "function"
    },
    {
      "inputs": [],
      "name": "masterAccess",
      "outputs": [
        {
          "internalType": "contract MasterAccessManagement",
          "name": "",
          "type": "address"
        }
      ],
      "stateMutability": "view",
      "type": "function"
    },
    {
      "inputs": [
        {
          "internalType": "address",
          "name": "registryAddress_",
          "type": "address"
        },
        {
          "internalType": "bytes",
          "name": "",
          "type": "bytes"
        }
      ],
      "name": "setDependencies",
      "outputs": [],
      "stateMutability": "nonpayable",
      "type": "function"
    },
    {
      "inputs": [
        {
          "internalType": "address",
          "name": "injector_",
          "type": "address"
        }
      ],
      "name": "setInjector",
      "outputs": [],
      "stateMutability": "nonpayable",
      "type": "function"
    },
    {
      "inputs": [
        {
          "internalType": "bytes4",
          "name": "interfaceId",
          "type": "bytes4"
        }
      ],
      "name": "supportsInterface",
      "outputs": [
        {
          "internalType": "bool",
          "name": "",
          "type": "bool"
        }
      ],
      "stateMutability": "view",
      "type": "function"
    },
    {
      "inputs": [
        {
          "internalType": "bytes32",
          "name": "hash_",
          "type": "bytes32"
        }
      ],
      "name": "toggleDeployedFlag",
      "outputs": [],
      "stateMutability": "nonpayable",
      "type": "function"
    }
  ],
  "bytecode": "0x608060405234801561001057600080fd5b50610868806100206000396000f3fe608060405234801561001057600080fd5b50600436106100b45760003560e01c80636913045111610071578063691304511461018057806374c0ff4f146101955780638cb941cc146101b8578063985d0776146101cb578063bfe44f57146101de578063ffa535c11461020857600080fd5b806301ffc9a7146100b957806323c6b840146100e1578063331d711e146100f65780633a85451f146101195780633e3b5b19146101445780634cbd14671461016d575b600080fd5b6100cc6100c73660046105c2565b61021b565b60405190151581526020015b60405180910390f35b6100e9610252565b6040516100d89190610639565b6100cc61010436600461064c565b60009081526001602052604090205460ff1690565b6100e96040518060400160405280600c81526020016b10511117d0d3d395149050d560a21b81525081565b6000805160206107f1833981519152545b6040516001600160a01b0390911681526020016100d8565b600054610155906001600160a01b031681565b61019361018e366004610690565b61026e565b005b6100cc6101a336600461064c565b60009081526002602052604090205460ff1690565b6101936101c6366004610754565b610313565b6101936101d936600461064c565b610334565b6100e96040518060400160405280600b81526020016a5357495443485f464c414760a81b81525081565b61019361021636600461064c565b61037f565b60006001600160e01b031982166336e447a160e21b148061024c57506301ffc9a760e01b6001600160e01b03198316145b92915050565b6040518060600160405280602281526020016108116022913981565b610276610454565b6000829050806001600160a01b031663085ec2976040518163ffffffff1660e01b8152600401602060405180830381865afa1580156102b9573d6000803e3d6000fd5b505050506040513d601f19601f820116820180604052508101906102dd9190610771565b600080546001600160a01b0319166001600160a01b039290921691909117905550336000805160206107f1833981519152555050565b61031b610454565b610331816000805160206107f183398151915255565b50565b6103616040518060400160405280600c81526020016b10511117d0d3d395149050d560a21b8152506104d8565b6000908152600160208190526040909120805460ff19169091179055565b6103ab6040518060400160405280600b81526020016a5357495443485f464c414760a81b8152506104d8565b60008181526001602052604090205460ff166104345760405162461bcd60e51b815260206004820152603f60248201527f416c6c6f776564436f6e747261637452656769737472793a20636f6e7472616360448201527f74206973206e6f7420616c6c6f77656420666f72206465706c6f796d656e740060648201526084015b60405180910390fd5b6000908152600260205260409020805460ff19811660ff90911615179055565b600061046c6000805160206107f18339815191525490565b90506001600160a01b038116158061048c57506001600160a01b03811633145b6103315760405162461bcd60e51b815260206004820152601a60248201527f446570656e64616e743a206e6f7420616e20696e6a6563746f72000000000000604482015260640161042b565b600054604080516060810190915260228082526001600160a01b0390921691637951c6da9133916108116020830139846040518463ffffffff1660e01b81526004016105269392919061078e565b602060405180830381865afa158015610543573d6000803e3d6000fd5b505050506040513d601f19601f8201168201806040525081019061056791906107ce565b6103315760405162461bcd60e51b815260206004820152602660248201527f416c6c6f776564436f6e747261637452656769737472793a206163636573732060448201526519195b9a595960d21b606482015260840161042b565b6000602082840312156105d457600080fd5b81356001600160e01b0319811681146105ec57600080fd5b9392505050565b6000815180845260005b81811015610619576020818501810151868301820152016105fd565b506000602082860101526020601f19601f83011685010191505092915050565b6020815260006105ec60208301846105f3565b60006020828403121561065e57600080fd5b5035919050565b6001600160a01b038116811461033157600080fd5b634e487b7160e01b600052604160045260246000fd5b600080604083850312156106a357600080fd5b82356106ae81610665565b9150602083013567ffffffffffffffff808211156106cb57600080fd5b818501915085601f8301126106df57600080fd5b8135818111156106f1576106f161067a565b604051601f8201601f19908116603f011681019083821181831017156107195761071961067a565b8160405282815288602084870101111561073257600080fd5b8260208601602083013760006020848301015280955050505050509250929050565b60006020828403121561076657600080fd5b81356105ec81610665565b60006020828403121561078357600080fd5b81516105ec81610665565b6001600160a01b03841681526060602082018190526000906107b2908301856105f3565b82810360408401526107c481856105f3565b9695505050505050565b6000602082840312156107e057600080fd5b815180151581146105ec57600080fdfe3d1f25f1ac447e55e7fec744471c4dab1c6a2b6ffb897825f9ea3d2e8c9be583414c4c4f5745445f434f4e54524143545f52454749535452595f5245534f55524345a2646970667358221220bbe8ab9b693c516e891d76e98da3fde4dbade38a1a59c09fe5820eed4e2f04a864736f6c63430008110033",
  "linkReferences": {},
  "deployedLinkReferences": {}
}