{
  "_format": "hh-sol-artifact-1",
  "contractName": "KYCRequests",
  "sourceName": "contracts/kyc-requests/KYCRequests.sol",
  "abi": [
    {
      "anonymous": false,
      "inputs": [
        {
          "indexed": false,
          "internalType": "uint8",
          "name": "version",
          "type": "uint8"
        }
      ],
      "name": "Initialized",
      "type": "event"
    },
    {
      "anonymous": false,
      "inputs": [
        {
          "indexed": false,
          "internalType": "address",
          "name": "userAddr",
          "type": "address"
        },
        {
          "indexed": false,
          "internalType": "uint256",
          "name": "requestId",
          "type": "uint256"
        }
      ],
      "name": "KYCRequestDropped",
      "type": "event"
    },
    {
      "anonymous": false,
      "inputs": [
        {
          "indexed": false,
          "internalType": "address",
          "name": "userAddr",
          "type": "address"
        },
        {
          "indexed": false,
          "internalType": "uint256",
          "name": "requestId",
          "type": "uint256"
        }
      ],
      "name": "KYCRoleRequested",
      "type": "event"
    },
    {
      "anonymous": false,
      "inputs": [
        {
          "indexed": false,
          "internalType": "string",
          "name": "newKYCRole",
          "type": "string"
        }
      ],
      "name": "KYCRoleUpdated",
      "type": "event"
    },
    {
      "inputs": [],
      "name": "KYCRole",
      "outputs": [
        {
          "internalType": "string",
          "name": "",
          "type": "string"
        }
      ],
      "stateMutability": "view",
      "type": "function"
    },
    {
      "inputs": [],
      "name": "KYC_REQUESTS_DEP",
      "outputs": [
        {
          "internalType": "string",
          "name": "",
          "type": "string"
        }
      ],
      "stateMutability": "view",
      "type": "function"
    },
    {
      "inputs": [],
      "name": "KYC_REQUESTS_RESOURCE",
      "outputs": [
        {
          "internalType": "string",
          "name": "",
          "type": "string"
        }
      ],
      "stateMutability": "view",
      "type": "function"
    },
    {
      "inputs": [],
      "name": "UPDATE_PERMISSION",
      "outputs": [
        {
          "internalType": "string",
          "name": "",
          "type": "string"
        }
      ],
      "stateMutability": "view",
      "type": "function"
    },
    {
      "inputs": [
        {
          "internalType": "string",
          "name": "KYCRole_",
          "type": "string"
        }
      ],
      "name": "__KYCRequests_init",
      "outputs": [],
      "stateMutability": "nonpayable",
      "type": "function"
    },
    {
      "inputs": [],
      "name": "dropKYCRequest",
      "outputs": [],
      "stateMutability": "nonpayable",
      "type": "function"
    },
    {
      "inputs": [],
      "name": "getInjector",
      "outputs": [
        {
          "internalType": "address",
          "name": "injector_",
          "type": "address"
        }
      ],
      "stateMutability": "view",
      "type": "function"
    },
    {
      "inputs": [
        {
          "internalType": "address",
          "name": "user_",
          "type": "address"
        }
      ],
      "name": "getUserRequestInfo",
      "outputs": [
        {
          "components": [
            {
              "internalType": "uint256",
              "name": "requestId",
              "type": "uint256"
            },
            {
              "internalType": "bool",
              "name": "existingRequest",
              "type": "bool"
            }
          ],
          "internalType": "struct IKYCRequests.UserRequestInfo",
          "name": "",
          "type": "tuple"
        }
      ],
      "stateMutability": "view",
      "type": "function"
    },
    {
      "inputs": [
        {
          "internalType": "string",
          "name": "KYCHash_",
          "type": "string"
        }
      ],
      "name": "requestKYC",
      "outputs": [],
      "stateMutability": "nonpayable",
      "type": "function"
    },
    {
      "inputs": [
        {
          "internalType": "address",
          "name": "registryAddress_",
          "type": "address"
        },
        {
          "internalType": "bytes",
          "name": "",
          "type": "bytes"
        }
      ],
      "name": "setDependencies",
      "outputs": [],
      "stateMutability": "nonpayable",
      "type": "function"
    },
    {
      "inputs": [
        {
          "internalType": "address",
          "name": "injector_",
          "type": "address"
        }
      ],
      "name": "setInjector",
      "outputs": [],
      "stateMutability": "nonpayable",
      "type": "function"
    },
    {
      "inputs": [
        {
          "internalType": "string",
          "name": "newKYCRole_",
          "type": "string"
        }
      ],
      "name": "updateKYCRole",
      "outputs": [],
      "stateMutability": "nonpayable",
      "type": "function"
    }
  ],
  "bytecode": "0x6080806040523461001657611441908161001c8239f35b600080fdfe6040608081526004908136101561001557600080fd5b600091823560e01c9081630db43e8c14610edf5781630ead6f1e14610ec15781631064b54314610c0e57816315cf2d1814610b9e5781633e3b5b1914610b685781634826f64314610b1c57816367d063ab1461086657816369130451146106d25781638cb941cc1461069a578163903e0a1114610270578163b85c46d9146100de575063ef88cab2146100a757600080fd5b346100da57816003193601126100da576100d6906100c3611133565b905191829160208352602083019061106b565b0390f35b5080fd5b9050346101bc57826003193601126101bc57338352806020528183209060ff600184519361010b85610f37565b805485520154161580156020840152610223576101288251611288565b156101ce57839060018060a01b0360035416908351823b156101ca57602484928388519586948593632938ad2760e01b85528401525af180156101c0576101a8575b508151835133815260208101919091527f1de1cb38e68016aad63613759164bb4e611b7ea6caffea75fd6c4adde92970409080604081015b0390a180f35b6101b190610f69565b6101bc57823861016a565b8280fd5b84513d84823e3d90fd5b8380fd5b608490602084519162461bcd60e51b8352820152602960248201527f4b594352657175657374733a207573657220686173206e6f2070656e64696e6760448201526820726571756573747360b81b6064820152fd5b608490602084519162461bcd60e51b8352820152602160248201527f4b594352657175657374733a207573657220686173206e6f20726571756573746044820152607360f81b6064820152fd5b839150346100da57610281366110ce565b93903384526020908382528285209160019081840182815460ff811660001461068e575050506102b18454611288565b61063c575b6003548551636a84a98560e01b81526001600160a01b03999097918a1692909181898281875afa988915610632578a996105ff575b506102f4610f9f565b9488519561030187610f37565b818752838c5b8181106105ef57505061031987611213565b5261032386611213565b5088519263ee2f6ce560e01b818501528b846064810198602499338b8401528d60448401528151809152608483018560848360051b860101930194905b87878484106105c4575050505050610381925003601f198101865285610f7d565b338a51926060840184811067ffffffffffffffff8211176105b2578c52602a84528284018c3682378451156105a05760309053835181101561058e57607860218501536029905b8082116105225750506104e2578b9c60029c98999a9b9c541694863b156104de5760a09961043d61044c9461041c8f988d99519e8f9d8e9c8d9b633ffa750960e01b8d528c01528a015260a489019061106b565b60031988820381810160448b01528a8352601c0160648a015295019061106b565b928584030160848601526111f2565b03925af180156104d457610497575b508290555133815260208101919091527f9d30917446b5b3f1c74256b827d4056210092b5e88aa42234e2b4b1ae38fd52c9080604081016101a2565b91837f9d30917446b5b3f1c74256b827d4056210092b5e88aa42234e2b4b1ae38fd52c9492956104c96101a295610f69565b95925093509161045b565b83513d87823e3d90fd5b8880fd5b8281886064938d519362461bcd60e51b85528401528201527f537472696e67733a20686578206c656e67746820696e73756666696369656e746044820152fd5b9091600f8116601081101561057b57855184101561057b576f181899199a1a9b1b9c1cb0b131b232b360811b901a858401850153851c9180156105695760001901906103c8565b634e487b7160e01b8f5260118652898ffd5b50634e487b7160e01b8f5260328652898ffd5b634e487b7160e01b8e5260328552888efd5b634e487b7160e01b8f5260328652898ffd5b634e487b7160e01b8f5260418652898ffd5b9193955091936105df82916083198d8203018652885161106b565b9601920192018893919492610360565b606082828b010152018490610307565b9098508181813d831161062b575b6106178183610f7d565b810103126106275751978b6102eb565b8980fd5b503d61060d565b88513d8c823e3d90fd5b8560849186519162461bcd60e51b8352820152602760248201527f4b594352657175657374733a20757365722068617320612070656e64696e67206044820152661c995c5d595cdd60ca1b6064820152fd5b60ff19161790556102b6565b83346106cf5760203660031901126106cf576106b461111d565b6106bc611164565b6000805160206113ac8339815191525580f35b80fd5b919050346101bc57806003193601126101bc576106ed61111d565b906024359267ffffffffffffffff841161086257366023850112156108625784848201359461071b86611090565b9561072885519788610f7d565b80875236602482840101116101bc576024968160209889940184830137010152610750611164565b815163085ec29760e01b8152936001600160a01b0393841681868481845afa95861561085857879661081c575b508190856bffffffffffffffffffffffff60a01b97168760025416176002558451938480926370371abb60e01b82525afa928315610813575085926107dd575b505016906003541617600355336000805160206113ac8339815191525580f35b90809250813d831161080c575b6107f48183610f7d565b810103126101ca57610805906111de565b38806107bd565b503d6107ea565b513d87823e3d90fd5b9095508181813d8311610851575b6108348183610f7d565b8101031261084d5761084682916111de565b959061077d565b8680fd5b503d61082a565b84513d89823e3d90fd5b8480fd5b9050346101bc57610876366110ce565b9260018060a01b0360025416926108bc61088e611133565b6108966110ac565b908451928391633ca8e36d60e11b8352338684015260606024840152606483019061106b565b9660031982890301604483015281806108d860209a8b9661106b565b03915afa908115610b12578791610adc575b5015610a9b578415610a5a5767ffffffffffffffff8511610a47575060016109128154610efd565b601f81116109f5575b5085601f86116001146109755791859493916000805160206113cc833981519152966101a294899161096a575b50600019600388901b1c191686821b1790555b519383859485528401916111f2565b905083013538610948565b8187526000805160206113ec83398151915290601f198716885b8181106109e057509187969593916000805160206113cc833981519152986101a29694106109c6575b50508086811b01905561095b565b840135600019600389901b60f8161c1916905538806109b8565b8683013584559284019291870191870161098f565b8187526000805160206113ec833981519152601f870160051c810191868810610a3d575b601f0160051c019082905b828110610a3257505061091b565b888155018290610a24565b9091508190610a19565b634e487b7160e01b865260419052602485fd5b83606492519162461bcd60e51b8352820152601b60248201527f4b594352657175657374733a20656d707479204b594320726f6c6500000000006044820152fd5b83606492519162461bcd60e51b8352820152601a60248201527f4b594352657175657374733a206163636573732064656e6965640000000000006044820152fd5b90508481813d8311610b0b575b610af38183610f7d565b8101031261084d5751801515810361084d57386108ea565b503d610ae9565b83513d89823e3d90fd5b5050346100da57816003193601126100da5780516100d691610b3d82610f37565b600c82526b4b59435f524551554553545360a01b60208301525191829160208352602083019061106b565b5050346100da57816003193601126100da576000805160206113ac8339815191525490516001600160a01b039091168152602090f35b9050346101bc5760203660031901126101bc57918192610bbc61111d565b8260208551610bca81610f37565b82815201526001600160a01b03168252602052208151610be981610f37565b602060ff60018454948585520154169101901515815282519182525115156020820152f35b839150346100da57610c1f366110ce565b93909183549260ff8460081c161591828093610eb4575b8015610e9d575b15610e4357600194838660ff198316178855610e32575b508615610def5767ffffffffffffffff8711610a475750610c758454610efd565b601f8111610d9c575b508495601f8111600114610d20578086976000805160206113cc8339815191529495969791610d15575b50600019600383901b1c191681871b1786555b610cd185519283926020845260208401916111f2565b0390a1610cdc578280f35b825461ff0019168355519081527f7f26b83ff96e1f2b6a682f133852f6798a09c465da95921460cefb384740249890602090a181808280f35b905082013588610ca8565b848652601f198116966000805160206113ec83398151915290875b898110610d865750826000805160206113cc833981519152959697989910610d6c575b50508581811b018655610cbb565b830135600019600384901b60f8161c191690558780610d5e565b8482013583559187019160209182019101610d3b565b8486526000805160206113ec833981519152601f880160051c81019160208910610de5575b601f0160051c019085905b828110610dda575050610c7e565b878155018590610dcc565b9091508190610dc1565b606490602085519162461bcd60e51b8352820152601b60248201527f4b594352657175657374733a20656d707479204b594320726f6c6500000000006044820152fd5b61ffff191661010117865587610c54565b608490602085519162461bcd60e51b8352820152602e60248201527f496e697469616c697a61626c653a20636f6e747261637420697320616c72656160448201526d191e481a5b9a5d1a585b1a5e995960921b6064820152fd5b50303b158015610c3d5750600160ff861614610c3d565b50600160ff861610610c36565b5050346100da57816003193601126100da576100d6906100c36110ac565b5050346100da57816003193601126100da576100d6906100c3610f9f565b90600182811c92168015610f2d575b6020831014610f1757565b634e487b7160e01b600052602260045260246000fd5b91607f1691610f0c565b6040810190811067ffffffffffffffff821117610f5357604052565b634e487b7160e01b600052604160045260246000fd5b67ffffffffffffffff8111610f5357604052565b90601f8019910116810190811067ffffffffffffffff821117610f5357604052565b60405190600082600191825492610fb584610efd565b808452938181169081156110265750600114610fdb575b50610fd992500383610f7d565b565b600081815291506000805160206113ec8339815191525b84831061100b5750610fd9935050810160200138610fcc565b81935090816020925483858a01015201910190918592610ff2565b905060209250610fd994915060ff191682840152151560051b82010138610fcc565b60005b83811061105b5750506000910152565b818101518382015260200161104b565b9060209161108481518092818552858086019101611048565b601f01601f1916010190565b67ffffffffffffffff8111610f5357601f01601f191660200190565b604051906110b982610f37565b600682526555504441544560d01b6020830152565b9060206003198301126111185760043567ffffffffffffffff9283821161111857806023830112156111185781600401359384116111185760248483010111611118576024019190565b600080fd5b600435906001600160a01b038216820361111857565b6040519061114082610f37565b60158252744b59435f52455155455354535f5245534f5552434560581b6020830152565b6000805160206113ac833981519152546001600160a01b031680159081156111d4575b501561118f57565b60405162461bcd60e51b815260206004820152601a60248201527f446570656e64616e743a206e6f7420616e20696e6a6563746f720000000000006044820152606490fd5b9050331438611187565b51906001600160a01b038216820361111857565b908060209392818452848401376000828201840152601f01601f1916010190565b8051156112205760200190565b634e487b7160e01b600052603260045260246000fd5b9092919261124381611090565b916112516040519384610f7d565b829482845282820111611118576020610fd9930190611048565b9080601f8301121561111857815161128592602001611236565b90565b60035460405163103a258b60e31b815260048101929092526000908190839060249082906001600160a01b03165afa91821561139e5781926112ea575b5060058210156112d6575060011490565b634e487b7160e01b81526021600452602490fd5b9091503d8083833e6112fc8183610f7d565b810160c0828203126101bc5781519160058310156101ca57611320602082016111de565b5061132d604082016111de565b5060608101519067ffffffffffffffff9182811161139a578361135191830161126b565b50608081015182811161139a578361136a91830161126b565b5060a0810151918211610862570181601f820112156101ca5780516113929291602001611236565b5090386112c5565b8580fd5b50604051903d90823e3d90fdfe3d1f25f1ac447e55e7fec744471c4dab1c6a2b6ffb897825f9ea3d2e8c9be583235c8aae8ed2aa6471ef620889a32f64144b0169615eeaf2f340f03dc3827f25b10e2d527612073b26eecdfd717e6a320cf44b4afac2b0732d9fcbe2b7fa0cf6a26469706673582212201491a25e81ded2847ee85e06b21daaa0a434a3507d6ca5baa9c3f29b9906b54764736f6c63430008110033",
  "linkReferences": {},
  "deployedLinkReferences": {}
}