{
  "_format": "hh-sol-artifact-1",
  "contractName": "MasterContractsRegistry",
  "sourceName": "@tokene/core-contracts/core/MasterContractsRegistry.sol",
  "abi": [
    {
      "anonymous": false,
      "inputs": [
        {
          "indexed": false,
          "internalType": "address",
          "name": "previousAdmin",
          "type": "address"
        },
        {
          "indexed": false,
          "internalType": "address",
          "name": "newAdmin",
          "type": "address"
        }
      ],
      "name": "AdminChanged",
      "type": "event"
    },
    {
      "anonymous": false,
      "inputs": [
        {
          "indexed": true,
          "internalType": "address",
          "name": "beacon",
          "type": "address"
        }
      ],
      "name": "BeaconUpgraded",
      "type": "event"
    },
    {
      "anonymous": false,
      "inputs": [
        {
          "indexed": false,
          "internalType": "string",
          "name": "name",
          "type": "string"
        },
        {
          "indexed": false,
          "internalType": "address",
          "name": "contractAddress",
          "type": "address"
        }
      ],
      "name": "ContractAdded",
      "type": "event"
    },
    {
      "anonymous": false,
      "inputs": [
        {
          "indexed": false,
          "internalType": "string",
          "name": "name",
          "type": "string"
        }
      ],
      "name": "ContractRemoved",
      "type": "event"
    },
    {
      "anonymous": false,
      "inputs": [
        {
          "indexed": false,
          "internalType": "uint8",
          "name": "version",
          "type": "uint8"
        }
      ],
      "name": "Initialized",
      "type": "event"
    },
    {
      "anonymous": false,
      "inputs": [],
      "name": "Initialized",
      "type": "event"
    },
    {
      "anonymous": false,
      "inputs": [
        {
          "indexed": false,
          "internalType": "string",
          "name": "name",
          "type": "string"
        },
        {
          "indexed": false,
          "internalType": "address",
          "name": "contractAddress",
          "type": "address"
        },
        {
          "indexed": false,
          "internalType": "address",
          "name": "implementation",
          "type": "address"
        }
      ],
      "name": "ProxyContractAdded",
      "type": "event"
    },
    {
      "anonymous": false,
      "inputs": [
        {
          "indexed": false,
          "internalType": "string",
          "name": "name",
          "type": "string"
        },
        {
          "indexed": false,
          "internalType": "address",
          "name": "newImplementation",
          "type": "address"
        }
      ],
      "name": "ProxyContractUpgraded",
      "type": "event"
    },
    {
      "anonymous": false,
      "inputs": [
        {
          "indexed": true,
          "internalType": "address",
          "name": "implementation",
          "type": "address"
        }
      ],
      "name": "Upgraded",
      "type": "event"
    },
    {
      "inputs": [],
      "name": "CONSTANTS_REGISTRY_NAME",
      "outputs": [
        {
          "internalType": "string",
          "name": "",
          "type": "string"
        }
      ],
      "stateMutability": "view",
      "type": "function"
    },
    {
      "inputs": [],
      "name": "MASTER_ACCESS_MANAGEMENT_NAME",
      "outputs": [
        {
          "internalType": "string",
          "name": "",
          "type": "string"
        }
      ],
      "stateMutability": "view",
      "type": "function"
    },
    {
      "inputs": [],
      "name": "MULTICALL_NAME",
      "outputs": [
        {
          "internalType": "string",
          "name": "",
          "type": "string"
        }
      ],
      "stateMutability": "view",
      "type": "function"
    },
    {
      "inputs": [],
      "name": "REVIEWABLE_REQUESTS_NAME",
      "outputs": [
        {
          "internalType": "string",
          "name": "",
          "type": "string"
        }
      ],
      "stateMutability": "view",
      "type": "function"
    },
    {
      "inputs": [
        {
          "internalType": "address",
          "name": "masterAccess_",
          "type": "address"
        }
      ],
      "name": "__MasterContractsRegistry_init",
      "outputs": [],
      "stateMutability": "nonpayable",
      "type": "function"
    },
    {
      "inputs": [
        {
          "internalType": "string",
          "name": "name_",
          "type": "string"
        },
        {
          "internalType": "address",
          "name": "contractAddress_",
          "type": "address"
        }
      ],
      "name": "addContract",
      "outputs": [],
      "stateMutability": "nonpayable",
      "type": "function"
    },
    {
      "inputs": [
        {
          "internalType": "string",
          "name": "name_",
          "type": "string"
        },
        {
          "internalType": "address",
          "name": "contractAddress_",
          "type": "address"
        }
      ],
      "name": "addProxyContract",
      "outputs": [],
      "stateMutability": "nonpayable",
      "type": "function"
    },
    {
      "inputs": [],
      "name": "getConstantsRegistry",
      "outputs": [
        {
          "internalType": "address",
          "name": "",
          "type": "address"
        }
      ],
      "stateMutability": "view",
      "type": "function"
    },
    {
      "inputs": [
        {
          "internalType": "string",
          "name": "name_",
          "type": "string"
        }
      ],
      "name": "getContract",
      "outputs": [
        {
          "internalType": "address",
          "name": "",
          "type": "address"
        }
      ],
      "stateMutability": "view",
      "type": "function"
    },
    {
      "inputs": [
        {
          "internalType": "string",
          "name": "name_",
          "type": "string"
        }
      ],
      "name": "getImplementation",
      "outputs": [
        {
          "internalType": "address",
          "name": "",
          "type": "address"
        }
      ],
      "stateMutability": "view",
      "type": "function"
    },
    {
      "inputs": [],
      "name": "getMasterAccessManagement",
      "outputs": [
        {
          "internalType": "address",
          "name": "",
          "type": "address"
        }
      ],
      "stateMutability": "view",
      "type": "function"
    },
    {
      "inputs": [],
      "name": "getMulticall",
      "outputs": [
        {
          "internalType": "address",
          "name": "",
          "type": "address"
        }
      ],
      "stateMutability": "view",
      "type": "function"
    },
    {
      "inputs": [],
      "name": "getProxyUpgrader",
      "outputs": [
        {
          "internalType": "address",
          "name": "",
          "type": "address"
        }
      ],
      "stateMutability": "view",
      "type": "function"
    },
    {
      "inputs": [],
      "name": "getReviewableRequests",
      "outputs": [
        {
          "internalType": "address",
          "name": "",
          "type": "address"
        }
      ],
      "stateMutability": "view",
      "type": "function"
    },
    {
      "inputs": [
        {
          "internalType": "string",
          "name": "name_",
          "type": "string"
        }
      ],
      "name": "hasContract",
      "outputs": [
        {
          "internalType": "bool",
          "name": "",
          "type": "bool"
        }
      ],
      "stateMutability": "view",
      "type": "function"
    },
    {
      "inputs": [
        {
          "internalType": "string",
          "name": "name_",
          "type": "string"
        }
      ],
      "name": "injectDependencies",
      "outputs": [],
      "stateMutability": "nonpayable",
      "type": "function"
    },
    {
      "inputs": [
        {
          "internalType": "string",
          "name": "name_",
          "type": "string"
        },
        {
          "internalType": "bytes",
          "name": "data_",
          "type": "bytes"
        }
      ],
      "name": "injectDependenciesWithData",
      "outputs": [],
      "stateMutability": "nonpayable",
      "type": "function"
    },
    {
      "inputs": [
        {
          "internalType": "string",
          "name": "name_",
          "type": "string"
        },
        {
          "internalType": "address",
          "name": "contractAddress_",
          "type": "address"
        }
      ],
      "name": "justAddProxyContract",
      "outputs": [],
      "stateMutability": "nonpayable",
      "type": "function"
    },
    {
      "inputs": [],
      "name": "proxiableUUID",
      "outputs": [
        {
          "internalType": "bytes32",
          "name": "",
          "type": "bytes32"
        }
      ],
      "stateMutability": "view",
      "type": "function"
    },
    {
      "inputs": [
        {
          "internalType": "string",
          "name": "name_",
          "type": "string"
        }
      ],
      "name": "removeContract",
      "outputs": [],
      "stateMutability": "nonpayable",
      "type": "function"
    },
    {
      "inputs": [
        {
          "internalType": "string",
          "name": "name_",
          "type": "string"
        },
        {
          "internalType": "address",
          "name": "newImplementation_",
          "type": "address"
        }
      ],
      "name": "upgradeContract",
      "outputs": [],
      "stateMutability": "nonpayable",
      "type": "function"
    },
    {
      "inputs": [
        {
          "internalType": "string",
          "name": "name_",
          "type": "string"
        },
        {
          "internalType": "address",
          "name": "newImplementation_",
          "type": "address"
        },
        {
          "internalType": "bytes",
          "name": "data_",
          "type": "bytes"
        }
      ],
      "name": "upgradeContractAndCall",
      "outputs": [],
      "stateMutability": "nonpayable",
      "type": "function"
    },
    {
      "inputs": [
        {
          "internalType": "address",
          "name": "newImplementation",
          "type": "address"
        }
      ],
      "name": "upgradeTo",
      "outputs": [],
      "stateMutability": "nonpayable",
      "type": "function"
    },
    {
      "inputs": [
        {
          "internalType": "address",
          "name": "newImplementation",
          "type": "address"
        },
        {
          "internalType": "bytes",
          "name": "data",
          "type": "bytes"
        }
      ],
      "name": "upgradeToAndCall",
      "outputs": [],
      "stateMutability": "payable",
      "type": "function"
    }
  ],
  "bytecode": "0x60a080604052346100315730608052612fb59081610037823960805181818161086401528181610ad40152610fee0152f35b600080fdfe604060808152600490813610156200001657600080fd5b600091823560e01c908163085ec297146200138f5781631271bd5314620012ff5781631adad8cf146200124d5781631b236de3146200122a57816326a31c6b14620012075781633581777314620011ed5781633659cfe61462000fc25781633e6decde1462000dd95781634f1ef2861462000a7b57816351dad82c146200091657816352d1902d146200084c5781636b683896146200076a5781636bbe8694146200068957816370371abb146200066457816388f941a614620006415781638c22360114620005f357816397623b58146200049e578163a4ce34391462000463578163be96dc3e146200038c578163bf5b6016146200029c578163d10611fc146200026e578163e0e084f814620001a657508063e133270c14620001825763f448f730146200014457600080fd5b346200017e57816003193601126200017e576020906200016d6200016762001580565b620018ed565b90516001600160a01b039091168152f35b5080fd5b50346200017e57816003193601126200017e576020906200016d620001676200162f565b919050346200026a57620001ba3662001400565b91939192909160206001600160a01b03620001d86200016762001656565b169160248451809481936312a9b2c160e11b835233908301525afa918215620002615750916200021b620002299592620002239488916200022c575b5062001bf9565b3691620015b0565b62001a0a565b80f35b62000252915060203d811162000259575b620002498183620014c5565b81019062001bdf565b3862000214565b503d6200023d565b513d87823e3d90fd5b8280fd5b5050346200017e57816003193601126200017e579054905160109190911c6001600160a01b03168152602090f35b9050346200026a57620002af3662001400565b926001600160a01b03929190602084620002cc6200016762001656565b169160248851809481936312a9b2c160e11b835233908301525afa9081156200038257927f8b4ef7d4e5bc8f098e6f637ac0acf4aee47b3f027efea6307264b06b4bc9d29896926200021b6200032f936200037c968b916200022c575062001bf9565b9284166200033f81151562001b21565b81516020818651620003558183858b0162001534565b81016001815203019020906001600160601b0360a01b825416179055519283928362001cfc565b0390a180f35b86513d89823e3d90fd5b919050346200026a57806003193601126200026a576001600160401b0382358181116200045f57620003c29036908501620013b4565b90916024359081116200045b57620003de9036908601620013b4565b909490939060206001600160a01b03620003fb6200016762001656565b169160248451809481936312a9b2c160e11b835233908301525afa918215620004525750926200022995926200021b62000442936200044b968a916200022c575062001bf9565b923691620015b0565b9062001c55565b513d88823e3d90fd5b8580fd5b8480fd5b5050346200017e57816003193601126200017e576200049a906200048662001656565b905191829160208352602083019062001559565b0390f35b9050346200026a57602080600319360112620005ef5781356001600160401b0381116200045f57620004d49036908401620013b4565b6001600160a01b03938385620004ed6200016762001656565b16916024885180948193630e087e1b60e31b835233908301525afa9081156200038257620005556200037c947f0c4eafbc12ea2584eb34031bf52952af5909a5880ef4058cb05c627ae39ffda098946200021b620005aa9589958d91620005d4575062001bf9565b958351908751918381818b01946200056f81838862001534565b810160018152030190205416620005888115156200188a565b89526002825283892060ff198154169055835180938192895192839162001534565b810160018152030190206001600160601b0360a01b81541690555192828493845283019062001559565b620002529150863d88116200025957620002498183620014c5565b8380fd5b5050346200017e576020906200060936620015ec565b826200061e8351928381519384920162001534565b6001908201908152819003830190205490516001600160a01b0390911615158152f35b5050346200017e57816003193601126200017e576200049a90620004866200162f565b5050346200017e57816003193601126200017e576020906200016d6200016762001503565b919050346200026a5760603660031901126200026a576001600160401b039082358281116200045f57620006c19036908501620013b4565b6001600160a01b03946024359390868516850362000766576044359586116200076657620006f560209636908301620013b4565b969097620007066200016762001656565b16916024845180948193630aefca5760e01b835233908301525afa9182156200075d5750926200022996926200021b6200074d9362000756968b916200022c575062001bf9565b933691620015b0565b9162001d26565b513d89823e3d90fd5b8780fd5b8383346200017e576200077d36620015ec565b908051938285935162000797816020988980950162001534565b840160018152848260018060a01b03968793030190205416620007bc8115156200188a565b80865260028252620007d460ff85882054166200192b565b602485875460101c169385519485938492630ad6396560e11b84528301525afa9384156200084157936200080b575b505191168152f35b62000831919350843d861162000839575b620008288183620014c5565b81019062001988565b918462000803565b503d6200081c565b8251903d90823e3d90fd5b905082346200091357806003193601126200091357507f00000000000000000000000000000000000000000000000000000000000000006001600160a01b03163003620008ab576020825160008051602062002f608339815191528152f35b6020608492519162461bcd60e51b8352820152603860248201527f555550535570677261646561626c653a206d757374206e6f742062652063616c60448201527f6c6564207468726f7567682064656c656761746563616c6c00000000000000006064820152fd5b80fd5b9050346200026a57620009293662001400565b926001600160a01b03929183620009436200016762001656565b169086519384926312a9b2c160e11b8452338585015283602460209788935afa91821562000a71576200021b620009849387958c91620005d4575062001bf9565b936024818716916200099883151562001b21565b8851848181620009af8b8381519384920162001534565b81016001815203019020836001600160601b0360a01b825416179055828a5260028452888a20600160ff19825416179055895460101c169388519485938492630ad6396560e11b84528301525afa91821562000a6757946200037c92917f10e75df11debcdd8425769babc76babb1b082c13be22ba626bfc8e6de393c4c596889362000a43575b5050519384938462001b83565b62000a5e929350803d106200083957620008288183620014c5565b90388062000a36565b85513d88823e3d90fd5b88513d8b823e3d90fd5b918091506003193601126200026a5762000a94620013e9565b906024356001600160401b0381116200045f57366023820112156200045f5762000ac89036906024818701359101620015b0565b6001600160a01b0391907f0000000000000000000000000000000000000000000000000000000000000000831662000b033082141562001691565b62000b2360008051602062002f60833981519152918583541614620016f3565b8362000b326200016762001656565b1693835180956312a9b2c160e11b8252338983015281602460209889935afa90811562000dcf579062000b6d918a9162000db4575062001bf9565b7f4910fdfa16fed3260ed0e7147f7cc6da11a60208b5b9406d12a635614ffd91435460ff161562000ba957505050505062000229915062001755565b85939495169084516352d1902d60e01b815286818981865afa89918162000d7b575b5062000c2b57855162461bcd60e51b8152808901889052602e60248201527f45524331393637557067726164653a206e657720696d706c656d656e7461746960448201526d6f6e206973206e6f74205555505360901b6064820152608490fd5b969192959493960362000d26575062000c448562001755565b7fbc7cd75a20ee27fd9adebab32041f755214dbc6bffa90cc0225b39da2e5c2d3b8680a282511580159062000d1d575b62000c81575b5050505080f35b62000d0793858083519562000c96876200148d565b602787527f416464726573733a206c6f772d6c6576656c2064656c65676174652063616c6c86880152660819985a5b195960ca1b858801528581519101845af4913d1562000d12573d62000cf862000cee82620014e7565b92519283620014c5565b81528681943d92013e620017e7565b503880808062000c7a565b5060609250620017e7565b50600162000c74565b825162461bcd60e51b8152908101849052602960248201527f45524331393637557067726164653a20756e737570706f727465642070726f786044820152681a58589b195555525160ba1b6064820152608490fd5b9091508781813d831162000dac575b62000d968183620014c5565b8101031262000da85751903862000bcb565b8980fd5b503d62000d8a565b620002529150873d89116200025957620002498183620014c5565b85513d8b823e3d90fd5b919050346200026a5760203660031901126200026a5762000df9620013e9565b83549260ff8460081c16159384809562000fb4575b801562000f9b575b1562000f415760ff19811660011786558462000f2f575b5062000e4b60ff865460081c1662000e4581620019a9565b620019a9565b825190610486808301918383106001600160401b0384111762000f1c575090829162002ada8339039085f0801562000f1257845462010000600160b01b03191660109190911b62010000600160b01b031617845562000eae906200022362001656565b51907f5daa87a0e9463431830481fd4b6e3403442dfb9a12b9c07597e9f61d50b633c88380a162000edd575080f35b60207f7f26b83ff96e1f2b6a682f133852f6798a09c465da95921460cefb38474024989161ff0019845416845560018152a180f35b82513d86823e3d90fd5b634e487b7160e01b885260419052602487fd5b61ffff19166101011785553862000e2d565b835162461bcd60e51b8152602081840152602e60248201527f496e697469616c697a61626c653a20636f6e747261637420697320616c72656160448201526d191e481a5b9a5d1a585b1a5e995960921b6064820152608490fd5b50303b15801562000e165750600160ff82161462000e16565b50600160ff82161062000e0e565b919050346200026a57602080600319360112620005ef5762000fe3620013e9565b916001600160a01b037f000000000000000000000000000000000000000000000000000000000000000081166200101d3082141562001691565b6200103d60008051602062002f60833981519152918383541614620016f3565b602484836200104f6200016762001656565b168551928380926312a9b2c160e11b8252338c8301525afa908115620011e3579062001083918991620005d4575062001bf9565b825191620010918362001471565b8783527f4910fdfa16fed3260ed0e7147f7cc6da11a60208b5b9406d12a635614ffd91435460ff1615620010d057505050505062000229915062001755565b85939495169084516352d1902d60e01b815286818981865afa899181620011ae575b506200115257855162461bcd60e51b8152808901889052602e60248201527f45524331393637557067726164653a206e657720696d706c656d656e7461746960448201526d6f6e206973206e6f74205555505360901b6064820152608490fd5b969192959493960362000d2657506200116b8562001755565b7fbc7cd75a20ee27fd9adebab32041f755214dbc6bffa90cc0225b39da2e5c2d3b8680a2825115801590620011a65762000c81575050505080f35b508462000c74565b9091508781813d8311620011db575b620011c98183620014c5565b8101031262000da857519038620010f2565b503d620011bd565b84513d8a823e3d90fd5b5050346200017e576020906200016d6200016736620015ec565b5050346200017e57816003193601126200017e576200049a906200048662001580565b5050346200017e57816003193601126200017e576200049a906200048662001503565b9050346200026a5760203660031901126200026a5780356001600160401b038111620005ef57620012829036908301620013b4565b909160206001600160a01b036200129c6200016762001656565b169160248651809481936312a9b2c160e11b835233908301525afa908115620012f557916200021b62000229959492620012de9488916200022c575062001bf9565b905190620012ec8262001471565b83825262001c55565b84513d87823e3d90fd5b919050346200026a57620013133662001400565b919360206001600160a01b036200132d6200016762001656565b16916024865180948193630aefca5760e01b835233908301525afa9081156200138557916200021b6200022996926200136e9489916200022c575062001bf9565b9151916200137c8362001471565b84835262001d26565b84513d88823e3d90fd5b5050346200017e57816003193601126200017e576020906200016d6200016762001656565b9181601f84011215620013e4578235916001600160401b038311620013e45760208381860195010111620013e457565b600080fd5b600435906001600160a01b0382168203620013e457565b6040600319820112620013e457600435906001600160401b038211620013e4576200142e91600401620013b4565b90916024356001600160a01b0381168103620013e45790565b6001600160401b0381116200145b57604052565b634e487b7160e01b600052604160045260246000fd5b602081019081106001600160401b038211176200145b57604052565b606081019081106001600160401b038211176200145b57604052565b604081019081106001600160401b038211176200145b57604052565b90601f801991011681019081106001600160401b038211176200145b57604052565b6001600160401b0381116200145b57601f01601f191660200190565b604051906200151282620014a9565b601382527252455649455741424c455f524551554553545360681b6020830152565b60005b838110620015485750506000910152565b818101518382015260200162001537565b90602091620015748151809281855285808601910162001534565b601f01601f1916010190565b604051906200158f82620014a9565b6012825271434f4e5354414e54535f524547495354525960701b6020830152565b929192620015be82620014e7565b91620015ce6040519384620014c5565b829481845281830111620013e4578281602093846000960137010152565b6020600319820112620013e457600435906001600160401b038211620013e45780602383011215620013e4578160246200162c93600401359101620015b0565b90565b604051906200163e82620014a9565b6009825268135553151250d0531360ba1b6020830152565b604051906200166582620014a9565b601882527f4d41535445525f4143434553535f4d414e4147454d454e5400000000000000006020830152565b156200169957565b60405162461bcd60e51b815260206004820152602c60248201527f46756e6374696f6e206d7573742062652063616c6c6564207468726f7567682060448201526b19195b1959d85d1958d85b1b60a21b6064820152608490fd5b15620016fb57565b60405162461bcd60e51b815260206004820152602c60248201527f46756e6374696f6e206d7573742062652063616c6c6564207468726f7567682060448201526b6163746976652070726f787960a01b6064820152608490fd5b803b156200178c5760008051602062002f6083398151915280546001600160a01b0319166001600160a01b03909216919091179055565b60405162461bcd60e51b815260206004820152602d60248201527f455243313936373a206e657720696d706c656d656e746174696f6e206973206e60448201526c1bdd08184818dbdb9d1c9858dd609a1b6064820152608490fd5b919290156200184c5750815115620017fd575090565b3b15620018075790565b60405162461bcd60e51b815260206004820152601d60248201527f416464726573733a2063616c6c20746f206e6f6e2d636f6e74726163740000006044820152606490fd5b825190915015620018605750805190602001fd5b60405162461bcd60e51b8152602060048201529081906200188690602483019062001559565b0390fd5b156200189257565b60405162461bcd60e51b815260206004820152602d60248201527f436f6e74726163747352656769737472793a2074686973206d617070696e672060448201526c191bd95cdb89dd08195e1a5cdd609a1b6064820152608490fd5b602062001904604051928381519384920162001534565b60019082019081528190036020019020546001600160a01b03166200162c8115156200188a565b156200193357565b60405162461bcd60e51b815260206004820152602760248201527f436f6e74726163747352656769737472793a206e6f7420612070726f787920636044820152661bdb9d1c9858dd60ca1b6064820152608490fd5b90816020910312620013e457516001600160a01b0381168103620013e45790565b15620019b157565b60405162461bcd60e51b815260206004820152602b60248201527f496e697469616c697a61626c653a20636f6e7472616374206973206e6f74206960448201526a6e697469616c697a696e6760a81b6064820152608490fd5b604080519293926001600160401b0392919060208101848111828210176200145b5782526000808252936001600160a01b039162001a4c888416151562001b21565b82865460101c16845192610cbb808501918583109083111762001b0d57918a85949262001a7f9462001e1f873962001bb4565b039085f0801562000f125791807f10e75df11debcdd8425769babc76babb1b082c13be22ba626bfc8e6de393c4c596979262001b089416958151602081885162001acd8183858d0162001534565b81016001815203019020876001600160601b0360a01b825416179055868152600260205220600160ff19825416179055519384938462001b83565b0390a1565b634e487b7160e01b89526041600452602489fd5b1562001b2957565b60405162461bcd60e51b815260206004820152602c60248201527f436f6e74726163747352656769737472793a207a65726f20616464726573732060448201526b34b9903337b93134b23232b760a11b6064820152608490fd5b9162001b9d60409295949560608552606085019062001559565b6001600160a01b0391821660208501529416910152565b6001600160a01b039182168152911660208201526060604082018190526200162c9291019062001559565b90816020910312620013e457518015158103620013e45790565b1562001c0157565b60405162461bcd60e51b815260206004820152602660248201527f4d6173746572436f6e74726163747352656769737472793a206163636573732060448201526519195b9a595960d21b6064820152608490fd5b602062001c6c604051928381519384920162001534565b60019082019081528190036020019020546001600160a01b031662001c938115156200188a565b803b15620013e45762001cd0600092918392604051948580948193636913045160e01b835230600484015260406024840152604483019062001559565b03925af1801562001cf05762001ce35750565b62001cee9062001447565b565b6040513d6000823e3d90fd5b9062001d1660209194939460408452604084019062001559565b6001600160a01b03909416910152565b929192604051815162001d3e81836020860162001534565b60019082019081528190036020019020546001600160a01b039081169062001d688215156200188a565b6000958691838352600260205262001d8760ff6040852054166200192b565b825460101c16803b156200026a57858362001dba956040519687958694859363a745e3df60e01b85526004850162001bb4565b03925af1801562001e13577f0ade5313c9e16e7e06de9ab0edde476cc9a6fd51b973b8685c6c5026028a39d294955062001e01575b5062001b086040519283928362001cfc565b62001e0c9062001447565b3862001def565b6040513d87823e3d90fdfe60406080815262000cbb8038038062000018816200030b565b9283398101906060818303126200030657620000348162000347565b916020926200004584840162000347565b8584015190936001600160401b0391908282116200030657019280601f850112156200030657835193620000836200007d866200035c565b6200030b565b948086528786019288828401011162000306578288620000a4930162000378565b823b15620002ac577f360894a13ba1a3210667c828492db98dca3e2076cc3735a920a3ca505d382bbc80546001600160a01b03199081166001600160a01b0386811691821790935590959194600093909290917fbc7cd75a20ee27fd9adebab32041f755214dbc6bffa90cc0225b39da2e5c2d3b8580a2805115801590620002a4575b620001f5575b50505050507fb53127684a568b3173ae13b9f8a6016e243e63b6e8ee1178d6a717850b5d6103937f7e644d79422f17c01e4894b5f4f588d331ebfa28653d42ae832dc59e38c9798f86865493815196818616885216958684820152a18315620001a3575016179055516108649081620004578239f35b60849086519062461bcd60e51b82526004820152602660248201527f455243313936373a206e65772061646d696e20697320746865207a65726f206160448201526564647265737360d01b6064820152fd5b895194606086019081118682101762000290578a52602785527f416464726573733a206c6f772d6c6576656c2064656c65676174652063616c6c89860152660819985a5b195960ca1b8a860152516200027a9493929183918291845af4903d1562000286573d6200026a6200007d826200035c565b90815280938a3d92013e6200039d565b5038808080806200012d565b606092506200039d565b634e487b7160e01b85526041600452602485fd5b508362000127565b865162461bcd60e51b815260048101879052602d60248201527f455243313936373a206e657720696d706c656d656e746174696f6e206973206e60448201526c1bdd08184818dbdb9d1c9858dd609a1b6064820152608490fd5b600080fd5b6040519190601f01601f191682016001600160401b038111838210176200033157604052565b634e487b7160e01b600052604160045260246000fd5b51906001600160a01b03821682036200030657565b6001600160401b0381116200033157601f01601f191660200190565b60005b8381106200038c5750506000910152565b81810151838201526020016200037b565b91929015620004025750815115620003b3575090565b3b15620003bd5790565b60405162461bcd60e51b815260206004820152601d60248201527f416464726573733a2063616c6c20746f206e6f6e2d636f6e74726163740000006044820152606490fd5b825190915015620004165750805190602001fd5b6044604051809262461bcd60e51b82526020600483015262000448815180928160248601526020868601910162000378565b601f01601f19168101030190fdfe60806040523615610015575b610013610142565b005b6000805160206107ef833981519152546001600160a01b03163303610135576000356001600160e01b031916631b2ce7f360e11b81036100605750610058610427565b602081519101f35b63278f794360e11b810361007c57506100776105c9565b610058565b6308f2839760e41b81036100935750610077610351565b6303e1469160e61b81036100aa5750610077610248565b635c60da1b60e01b036100bf57610077610281565b60405162461bcd60e51b815260206004820152604260248201527f5472616e73706172656e745570677261646561626c6550726f78793a2061646d60448201527f696e2063616e6e6f742066616c6c6261636b20746f2070726f78792074617267606482015261195d60f21b608482015260a490fd5b61013d61018f565b61000b565b6000805160206107ef833981519152546001600160a01b03163303610185576000356001600160e01b031916631b2ce7f360e11b81036100605750610058610427565b61018d61018f565b565b5060008051602061080f83398151915254600090819081906001600160a01b0316368280378136915af43d82803e156101c6573d90f35b3d90fd5b50634e487b7160e01b600052604160045260246000fd5b6040810190811067ffffffffffffffff8211176101fd57604052565b6102056101ca565b604052565b6020810190811067ffffffffffffffff8211176101fd57604052565b90601f8019910116810190811067ffffffffffffffff8211176101fd57604052565b61025061065a565b60018060a01b036000805160206107ef83398151915254166040519060208201526020815261027e816101e1565b90565b61028961065a565b60018060a01b0360008051602061080f83398151915254166040519060208201526020815261027e816101e1565b600435906001600160a01b03821682036102cd57565b600080fd5b60209060031901126102cd576004356001600160a01b03811681036102cd5790565b60209067ffffffffffffffff8111610312575b601f01601f19160190565b61031a6101ca565b610307565b604051906020820182811067ffffffffffffffff821117610344575b60405260008252565b61034c6101ca565b61033b565b61035961065a565b366004116102cd576001600160a01b0380610373366102d2565b166000805160206107ef833981519152917f7e644d79422f17c01e4894b5f4f588d331ebfa28653d42ae832dc59e38c9798f604084549281519084168152846020820152a181156103d3576001600160a01b03191617905561027e61031f565b60405162461bcd60e51b815260206004820152602660248201527f455243313936373a206e65772061646d696e20697320746865207a65726f206160448201526564647265737360d01b6064820152608490fd5b61042f61065a565b366004116102cd576001600160a01b03610448366102d2565b16604051906104568261020a565b60008252803b156104ed5760008051602061080f83398151915280546001600160a01b03191682179055807fbc7cd75a20ee27fd9adebab32041f755214dbc6bffa90cc0225b39da2e5c2d3b600080a28151158015906104e5575b6104cb575b50506040516104c48161020a565b6000815290565b6104dd916104d7610661565b916106c9565b5038806104b6565b5060006104b1565b60405162461bcd60e51b815260206004820152602d60248201527f455243313936373a206e657720696d706c656d656e746174696f6e206973206e60448201526c1bdd08184818dbdb9d1c9858dd609a1b6064820152608490fd5b803b156104ed5760008051602061080f83398151915280546001600160a01b0319166001600160a01b0383169081179091557fbc7cd75a20ee27fd9adebab32041f755214dbc6bffa90cc0225b39da2e5c2d3b600080a28151158015906105c1575b6105b2575050565b6105be916104d7610661565b50565b5060016105aa565b366004116102cd5760403660031901126102cd576105e56102b7565b6024359067ffffffffffffffff82116102cd57366023830112156102cd57816004013590610612826102f4565b916106206040519384610226565b80835236602482860101116102cd576020816000926024610652970183870137840101526001600160a01b0316610548565b61027e61031f565b346102cd57565b604051906060820182811067ffffffffffffffff8211176106bc575b60405260278252660819985a5b195960ca1b6040837f416464726573733a206c6f772d6c6576656c2064656c65676174652063616c6c60208201520152565b6106c46101ca565b61067d565b60008061027e9493602081519101845af43d15610708573d916106eb836102f4565b926106f96040519485610226565b83523d6000602085013e61075c565b60609161075c565b1561071757565b60405162461bcd60e51b815260206004820152601d60248201527f416464726573733a2063616c6c20746f206e6f6e2d636f6e74726163740000006044820152606490fd5b9192901561077c5750815115610770575090565b61027e903b1515610710565b82519091501561078f5750805190602001fd5b6040519062461bcd60e51b82528160208060048301528251908160248401526000935b8285106107d5575050604492506000838284010152601f80199101168101030190fd5b84810182015186860160440152938101938593506107b256feb53127684a568b3173ae13b9f8a6016e243e63b6e8ee1178d6a717850b5d6103360894a13ba1a3210667c828492db98dca3e2076cc3735a920a3ca505d382bbca26469706673582212205430932df2b4228aa1aa5d08a5779d2cf5326305e6295e92af79505e14408aa864736f6c6343000811003360a0806040523461009a57331561003257336080526040516103e690816100a0823960805181818160b3015261021a0152f35b62461bcd60e51b815260206004820152603360248201527f5065726d616e656e744f776e61626c653a207a65726f2061646472657373206360448201527f616e206e6f7420626520746865206f776e6572000000000000000000000000006064820152608490fd5b600080fdfe608060409080825260048036101561001657600080fd5b600091823560e01c90816315ac72ca14610249575080638da5cb5b146102055763a745e3df1461004557600080fd5b346102015760603660031901126102015761005e61036b565b926024916001600160a01b0390833582811691908290036101fd576044359167ffffffffffffffff9384841161015e573660238501121561015e578383013594851161015e573687868601011161015e5733817f000000000000000000000000000000000000000000000000000000000000000016036101a9578798851515600014610162571691823b1561015e57606488959182879389519a8b988997889563278f794360e11b87528601528b8286015282604486015201848401378181018301849052601f01601f191681010301925af1908115610155575061014257505080f35b61014b90610386565b6101525780f35b80fd5b513d84823e3d90fd5b8780fd5b169694959093509150853b156101a5578385519687948593631b2ce7f360e11b85528401525af19081156101555750610199575080f35b6101a290610386565b80f35b8380fd5b855162461bcd60e51b81526020818501526029818901527f5065726d616e656e744f776e61626c653a2063616c6c6572206973206e6f74206044820152683a34329037bbb732b960b91b6064820152608490fd5b8580fd5b5080fd5b828434610201578160031936011261020157517f00000000000000000000000000000000000000000000000000000000000000006001600160a01b03168152602090f35b838584346102e857602093846003193601126101a5578382819261026b61036b565b635c60da1b60e01b82525afa903d156103635767ffffffffffffffff913d83811161035057845193601f8201601f19908116603f011685019081118582101761033d57855283523d858785013e5b156102ec575083818051810103126102e8578301516001600160a01b0381169290839003610152575051908152f35b8280fd5b825162461bcd60e51b8152908101859052602560248201527f5472616e73706172656e7450726f787955706772616465723a206e6f7420612060448201526470726f787960d81b6064820152608490fd5b634e487b7160e01b875260418452602487fd5b634e487b7160e01b865260418352602486fd5b6060916102b9565b600435906001600160a01b038216820361038157565b600080fd5b67ffffffffffffffff811161039a57604052565b634e487b7160e01b600052604160045260246000fdfea2646970667358221220441142217b71f27403cfc060635df3251dab466c0b678f60d4d7c9fa7dfe009564736f6c63430008110033360894a13ba1a3210667c828492db98dca3e2076cc3735a920a3ca505d382bbca2646970667358221220ec08435ea6069f8c79f5efc9b2ad700af67d32409d4dcece0c68daf86894d43964736f6c63430008110033",
  "linkReferences": {},
  "deployedLinkReferences": {}
}