{
  "_format": "hh-sol-artifact-1",
  "contractName": "MasterContractsRegistry",
  "sourceName": "contracts/core/MasterContractsRegistry.sol",
  "abi": [
    {
      "anonymous": false,
      "inputs": [
        {
          "indexed": false,
          "internalType": "address",
          "name": "previousAdmin",
          "type": "address"
        },
        {
          "indexed": false,
          "internalType": "address",
          "name": "newAdmin",
          "type": "address"
        }
      ],
      "name": "AdminChanged",
      "type": "event"
    },
    {
      "anonymous": false,
      "inputs": [
        {
          "indexed": true,
          "internalType": "address",
          "name": "beacon",
          "type": "address"
        }
      ],
      "name": "BeaconUpgraded",
      "type": "event"
    },
    {
      "anonymous": false,
      "inputs": [
        {
          "indexed": false,
          "internalType": "string",
          "name": "name",
          "type": "string"
        },
        {
          "indexed": false,
          "internalType": "address",
          "name": "contractAddress",
          "type": "address"
        }
      ],
      "name": "ContractAdded",
      "type": "event"
    },
    {
      "anonymous": false,
      "inputs": [
        {
          "indexed": false,
          "internalType": "string",
          "name": "name",
          "type": "string"
        }
      ],
      "name": "ContractRemoved",
      "type": "event"
    },
    {
      "anonymous": false,
      "inputs": [
        {
          "indexed": false,
          "internalType": "uint8",
          "name": "version",
          "type": "uint8"
        }
      ],
      "name": "Initialized",
      "type": "event"
    },
    {
      "anonymous": false,
      "inputs": [],
      "name": "Initialized",
      "type": "event"
    },
    {
      "anonymous": false,
      "inputs": [
        {
          "indexed": false,
          "internalType": "string",
          "name": "name",
          "type": "string"
        },
        {
          "indexed": false,
          "internalType": "address",
          "name": "contractAddress",
          "type": "address"
        },
        {
          "indexed": false,
          "internalType": "address",
          "name": "implementation",
          "type": "address"
        }
      ],
      "name": "ProxyContractAdded",
      "type": "event"
    },
    {
      "anonymous": false,
      "inputs": [
        {
          "indexed": false,
          "internalType": "string",
          "name": "name",
          "type": "string"
        },
        {
          "indexed": false,
          "internalType": "address",
          "name": "newImplementation",
          "type": "address"
        }
      ],
      "name": "ProxyContractUpgraded",
      "type": "event"
    },
    {
      "anonymous": false,
      "inputs": [
        {
          "indexed": true,
          "internalType": "address",
          "name": "implementation",
          "type": "address"
        }
      ],
      "name": "Upgraded",
      "type": "event"
    },
    {
      "inputs": [],
      "name": "CONSTANTS_REGISTRY_NAME",
      "outputs": [
        {
          "internalType": "string",
          "name": "",
          "type": "string"
        }
      ],
      "stateMutability": "view",
      "type": "function"
    },
    {
      "inputs": [],
      "name": "MASTER_ACCESS_MANAGEMENT_NAME",
      "outputs": [
        {
          "internalType": "string",
          "name": "",
          "type": "string"
        }
      ],
      "stateMutability": "view",
      "type": "function"
    },
    {
      "inputs": [],
      "name": "MULTICALL_NAME",
      "outputs": [
        {
          "internalType": "string",
          "name": "",
          "type": "string"
        }
      ],
      "stateMutability": "view",
      "type": "function"
    },
    {
      "inputs": [],
      "name": "REVIEWABLE_REQUESTS_NAME",
      "outputs": [
        {
          "internalType": "string",
          "name": "",
          "type": "string"
        }
      ],
      "stateMutability": "view",
      "type": "function"
    },
    {
      "inputs": [
        {
          "internalType": "address",
          "name": "masterAccess_",
          "type": "address"
        }
      ],
      "name": "__MasterContractsRegistry_init",
      "outputs": [],
      "stateMutability": "nonpayable",
      "type": "function"
    },
    {
      "inputs": [
        {
          "internalType": "string",
          "name": "name_",
          "type": "string"
        },
        {
          "internalType": "address",
          "name": "contractAddress_",
          "type": "address"
        }
      ],
      "name": "addContract",
      "outputs": [],
      "stateMutability": "nonpayable",
      "type": "function"
    },
    {
      "inputs": [
        {
          "internalType": "string",
          "name": "name_",
          "type": "string"
        },
        {
          "internalType": "address",
          "name": "contractAddress_",
          "type": "address"
        }
      ],
      "name": "addProxyContract",
      "outputs": [],
      "stateMutability": "nonpayable",
      "type": "function"
    },
    {
      "inputs": [],
      "name": "getConstantsRegistry",
      "outputs": [
        {
          "internalType": "address",
          "name": "",
          "type": "address"
        }
      ],
      "stateMutability": "view",
      "type": "function"
    },
    {
      "inputs": [
        {
          "internalType": "string",
          "name": "name_",
          "type": "string"
        }
      ],
      "name": "getContract",
      "outputs": [
        {
          "internalType": "address",
          "name": "",
          "type": "address"
        }
      ],
      "stateMutability": "view",
      "type": "function"
    },
    {
      "inputs": [
        {
          "internalType": "string",
          "name": "name_",
          "type": "string"
        }
      ],
      "name": "getImplementation",
      "outputs": [
        {
          "internalType": "address",
          "name": "",
          "type": "address"
        }
      ],
      "stateMutability": "view",
      "type": "function"
    },
    {
      "inputs": [],
      "name": "getMasterAccessManagement",
      "outputs": [
        {
          "internalType": "address",
          "name": "",
          "type": "address"
        }
      ],
      "stateMutability": "view",
      "type": "function"
    },
    {
      "inputs": [],
      "name": "getMulticall",
      "outputs": [
        {
          "internalType": "address",
          "name": "",
          "type": "address"
        }
      ],
      "stateMutability": "view",
      "type": "function"
    },
    {
      "inputs": [],
      "name": "getProxyUpgrader",
      "outputs": [
        {
          "internalType": "address",
          "name": "",
          "type": "address"
        }
      ],
      "stateMutability": "view",
      "type": "function"
    },
    {
      "inputs": [],
      "name": "getReviewableRequests",
      "outputs": [
        {
          "internalType": "address",
          "name": "",
          "type": "address"
        }
      ],
      "stateMutability": "view",
      "type": "function"
    },
    {
      "inputs": [
        {
          "internalType": "string",
          "name": "name_",
          "type": "string"
        }
      ],
      "name": "hasContract",
      "outputs": [
        {
          "internalType": "bool",
          "name": "",
          "type": "bool"
        }
      ],
      "stateMutability": "view",
      "type": "function"
    },
    {
      "inputs": [
        {
          "internalType": "string",
          "name": "name_",
          "type": "string"
        }
      ],
      "name": "injectDependencies",
      "outputs": [],
      "stateMutability": "nonpayable",
      "type": "function"
    },
    {
      "inputs": [
        {
          "internalType": "string",
          "name": "name_",
          "type": "string"
        },
        {
          "internalType": "bytes",
          "name": "data_",
          "type": "bytes"
        }
      ],
      "name": "injectDependenciesWithData",
      "outputs": [],
      "stateMutability": "nonpayable",
      "type": "function"
    },
    {
      "inputs": [
        {
          "internalType": "string",
          "name": "name_",
          "type": "string"
        },
        {
          "internalType": "address",
          "name": "contractAddress_",
          "type": "address"
        }
      ],
      "name": "justAddProxyContract",
      "outputs": [],
      "stateMutability": "nonpayable",
      "type": "function"
    },
    {
      "inputs": [],
      "name": "proxiableUUID",
      "outputs": [
        {
          "internalType": "bytes32",
          "name": "",
          "type": "bytes32"
        }
      ],
      "stateMutability": "view",
      "type": "function"
    },
    {
      "inputs": [
        {
          "internalType": "string",
          "name": "name_",
          "type": "string"
        }
      ],
      "name": "removeContract",
      "outputs": [],
      "stateMutability": "nonpayable",
      "type": "function"
    },
    {
      "inputs": [
        {
          "internalType": "string",
          "name": "name_",
          "type": "string"
        },
        {
          "internalType": "address",
          "name": "newImplementation_",
          "type": "address"
        }
      ],
      "name": "upgradeContract",
      "outputs": [],
      "stateMutability": "nonpayable",
      "type": "function"
    },
    {
      "inputs": [
        {
          "internalType": "string",
          "name": "name_",
          "type": "string"
        },
        {
          "internalType": "address",
          "name": "newImplementation_",
          "type": "address"
        },
        {
          "internalType": "bytes",
          "name": "data_",
          "type": "bytes"
        }
      ],
      "name": "upgradeContractAndCall",
      "outputs": [],
      "stateMutability": "nonpayable",
      "type": "function"
    },
    {
      "inputs": [
        {
          "internalType": "address",
          "name": "newImplementation",
          "type": "address"
        }
      ],
      "name": "upgradeTo",
      "outputs": [],
      "stateMutability": "nonpayable",
      "type": "function"
    },
    {
      "inputs": [
        {
          "internalType": "address",
          "name": "newImplementation",
          "type": "address"
        },
        {
          "internalType": "bytes",
          "name": "data",
          "type": "bytes"
        }
      ],
      "name": "upgradeToAndCall",
      "outputs": [],
      "stateMutability": "payable",
      "type": "function"
    }
  ],
  "bytecode": "0x60a06040523060805234801561001457600080fd5b506080516139b261004c600039600081816107b2015281816107f5015281816109e201528181610a250152610b9601526139b26000f3fe608060405260043610620001675760003560e01c80636bbe869411620000c5578063be96dc3e1162000078578063be96dc3e1462000489578063bf5b601614620004ae578063d10611fc14620004d3578063e0e084f814620004f9578063e133270c146200051e578063f448f730146200053657600080fd5b80636bbe8694146200037457806370371abb146200039957806388f941a614620003b15780638c22360114620003e857806397623b58146200041e578063a4ce3439146200044357600080fd5b80633659cfe6116200011e5780633659cfe614620002a25780633e6decde14620002c75780634f1ef28614620002ec57806351dad82c146200030357806352d1902d14620003285780636b683896146200034f57600080fd5b8063085ec297146200016c5780631271bd5314620001a15780631adad8cf14620001c85780631b236de314620001ed57806326a31c6b146200023d57806335817773146200027d575b600080fd5b3480156200017957600080fd5b50620001846200054e565b6040516001600160a01b0390911681526020015b60405180910390f35b348015620001ae57600080fd5b50620001c6620001c036600462001ea9565b62000590565b005b348015620001d557600080fd5b50620001c6620001e736600462001f06565b62000677565b348015620001fa57600080fd5b506200022e6040518060400160405280601381526020017252455649455741424c455f524551554553545360681b81525081565b60405162000198919062001fa0565b3480156200024a57600080fd5b506200022e60405180604001604052806012815260200171434f4e5354414e54535f524547495354525960701b81525081565b3480156200028a57600080fd5b50620001846200029c36600462002048565b62000752565b348015620002af57600080fd5b50620001c6620002c136600462002096565b620007a8565b348015620002d457600080fd5b50620001c6620002e636600462002096565b62000893565b620001c6620002fd366004620020b6565b620009d8565b3480156200031057600080fd5b50620001c66200032236600462001ea9565b62000ab0565b3480156200033557600080fd5b506200034062000b89565b60405190815260200162000198565b3480156200035c57600080fd5b50620001846200036e36600462002048565b62000c3f565b3480156200038157600080fd5b50620001c66200039336600462002121565b62000d49565b348015620003a657600080fd5b506200018462000e5d565b348015620003be57600080fd5b506200022e60405180604001604052806009815260200168135553151250d0531360ba1b81525081565b348015620003f557600080fd5b506200040d6200040736600462002048565b62000e95565b604051901515815260200162000198565b3480156200042b57600080fd5b50620001c66200043d36600462001f06565b62000ed4565b3480156200045057600080fd5b506200022e60405180604001604052806018815260200177135054d5115497d050d0d154d4d7d350539051d15351539560421b81525081565b3480156200049657600080fd5b50620001c6620004a8366004620021af565b62000fab565b348015620004bb57600080fd5b50620001c6620004cd36600462001ea9565b620010bc565b348015620004e057600080fd5b506000546201000090046001600160a01b031662000184565b3480156200050657600080fd5b50620001c66200051836600462001ea9565b62001195565b3480156200052b57600080fd5b50620001846200126e565b3480156200054357600080fd5b50620001846200129c565b60006200058b60405180604001604052806018815260200177135054d5115497d050d0d154d4d7d350539051d15351539560421b81525062000752565b905090565b6200059a6200054e565b604051630aefca5760e01b81523360048201526001600160a01b039190911690630aefca5790602401602060405180830381865afa158015620005e1573d6000803e3d6000fd5b505050506040513d601f19601f8201168201806040525081019062000607919062002222565b6200062f5760405162461bcd60e51b8152600401620006269062002246565b60405180910390fd5b6200067283838080601f016020809104026020016040519081016040528093929190818152602001838380828437600092019190915250859250620012d3915050565b505050565b620006816200054e565b6040516312a9b2c160e11b81523360048201526001600160a01b039190911690632553658290602401602060405180830381865afa158015620006c8573d6000803e3d6000fd5b505050506040513d601f19601f82011682018060405250810190620006ee919062002222565b6200070d5760405162461bcd60e51b8152600401620006269062002246565b6200074e82828080601f016020809104026020016040519081016040528093929190818152602001838380828437600092019190915250620012ef92505050565b5050565b6000806001836040516200076791906200228c565b908152604051908190036020019020546001600160a01b0316905080620007a25760405162461bcd60e51b81526004016200062690620022aa565b92915050565b6001600160a01b037f0000000000000000000000000000000000000000000000000000000000000000163003620007f35760405162461bcd60e51b81526004016200062690620022f7565b7f00000000000000000000000000000000000000000000000000000000000000006001600160a01b03166200083e60008051602062003936833981519152546001600160a01b031690565b6001600160a01b031614620008675760405162461bcd60e51b8152600401620006269062002343565b62000872816200130a565b604080516000808252602082019092526200089091839190620013a0565b50565b600054610100900460ff1615808015620008b45750600054600160ff909116105b80620008d05750303b158015620008d0575060005460ff166001145b620009355760405162461bcd60e51b815260206004820152602e60248201527f496e697469616c697a61626c653a20636f6e747261637420697320616c72656160448201526d191e481a5b9a5d1a585b1a5e995960921b606482015260840162000626565b6000805460ff19166001179055801562000959576000805461ff0019166101001790555b620009648262001518565b6040517f5daa87a0e9463431830481fd4b6e3403442dfb9a12b9c07597e9f61d50b633c890600090a180156200074e576000805461ff0019169055604051600181527f7f26b83ff96e1f2b6a682f133852f6798a09c465da95921460cefb3847402498906020015b60405180910390a15050565b6001600160a01b037f000000000000000000000000000000000000000000000000000000000000000016300362000a235760405162461bcd60e51b81526004016200062690620022f7565b7f00000000000000000000000000000000000000000000000000000000000000006001600160a01b031662000a6e60008051602062003936833981519152546001600160a01b031690565b6001600160a01b03161462000a975760405162461bcd60e51b8152600401620006269062002343565b62000aa2826200130a565b6200074e82826001620013a0565b62000aba6200054e565b6040516312a9b2c160e11b81523360048201526001600160a01b039190911690632553658290602401602060405180830381865afa15801562000b01573d6000803e3d6000fd5b505050506040513d601f19601f8201168201806040525081019062000b27919062002222565b62000b465760405162461bcd60e51b8152600401620006269062002246565b6200067283838080601f01602080910402602001604051908101604052809392919081815260200183838082843760009201919091525085925062001588915050565b6000306001600160a01b037f0000000000000000000000000000000000000000000000000000000000000000161462000c2b5760405162461bcd60e51b815260206004820152603860248201527f555550535570677261646561626c653a206d757374206e6f742062652063616c60448201527f6c6564207468726f7567682064656c656761746563616c6c0000000000000000606482015260840162000626565b506000805160206200393683398151915290565b60008060018360405162000c5491906200228c565b908152604051908190036020019020546001600160a01b031690508062000c8f5760405162461bcd60e51b81526004016200062690620022aa565b6001600160a01b03811660009081526002602052604090205460ff1662000cca5760405162461bcd60e51b815260040162000626906200238f565b600054604051630ad6396560e11b81526001600160a01b03838116600483015262010000909204909116906315ac72ca90602401602060405180830381865afa15801562000d1c573d6000803e3d6000fd5b505050506040513d601f19601f8201168201806040525081019062000d429190620023d6565b9392505050565b62000d536200054e565b604051630aefca5760e01b81523360048201526001600160a01b039190911690630aefca5790602401602060405180830381865afa15801562000d9a573d6000803e3d6000fd5b505050506040513d601f19601f8201168201806040525081019062000dc0919062002222565b62000ddf5760405162461bcd60e51b8152600401620006269062002246565b62000e5685858080601f01602080910402602001604051908101604052809392919081815260200183838082843760009201919091525050604080516020601f880181900481028201810190925286815288935091508690869081908401838280828437600092019190915250620016ac92505050565b5050505050565b60006200058b6040518060400160405280601381526020017252455649455741424c455f524551554553545360681b81525062000752565b6000806001600160a01b031660018360405162000eb391906200228c565b908152604051908190036020019020546001600160a01b0316141592915050565b62000ede6200054e565b604051630e087e1b60e31b81523360048201526001600160a01b039190911690637043f0d890602401602060405180830381865afa15801562000f25573d6000803e3d6000fd5b505050506040513d601f19601f8201168201806040525081019062000f4b919062002222565b62000f6a5760405162461bcd60e51b8152600401620006269062002246565b6200074e82828080601f016020809104026020016040519081016040528093929190818152602001838380828437600092019190915250620017e692505050565b62000fb56200054e565b6040516312a9b2c160e11b81523360048201526001600160a01b039190911690632553658290602401602060405180830381865afa15801562000ffc573d6000803e3d6000fd5b505050506040513d601f19601f8201168201806040525081019062001022919062002222565b620010415760405162461bcd60e51b8152600401620006269062002246565b620010b684848080601f01602080910402602001604051908101604052809392919081815260200183838082843760009201919091525050604080516020601f88018190048102820181019092528681529250869150859081908401838280828437600092019190915250620018b492505050565b50505050565b620010c66200054e565b6040516312a9b2c160e11b81523360048201526001600160a01b039190911690632553658290602401602060405180830381865afa1580156200110d573d6000803e3d6000fd5b505050506040513d601f19601f8201168201806040525081019062001133919062002222565b620011525760405162461bcd60e51b8152600401620006269062002246565b6200067283838080601f0160208091040260200160405190810160405280939291908181526020018383808284376000920191909152508592506200196f915050565b6200119f6200054e565b6040516312a9b2c160e11b81523360048201526001600160a01b039190911690632553658290602401602060405180830381865afa158015620011e6573d6000803e3d6000fd5b505050506040513d601f19601f820116820180604052508101906200120c919062002222565b6200122b5760405162461bcd60e51b8152600401620006269062002246565b6200067283838080601f01602080910402602001604051908101604052809392919081815260200183838082843760009201919091525085925062001a0c915050565b60006200058b60405180604001604052806009815260200168135553151250d0531360ba1b81525062000752565b60006200058b60405180604001604052806012815260200171434f4e5354414e54535f524547495354525960701b81525062000752565b6200074e828260405180602001604052806000815250620016ac565b620008908160405180602001604052806000815250620018b4565b620013146200054e565b6040516312a9b2c160e11b81523360048201526001600160a01b039190911690632553658290602401602060405180830381865afa1580156200135b573d6000803e3d6000fd5b505050506040513d601f19601f8201168201806040525081019062001381919062002222565b620008905760405162461bcd60e51b8152600401620006269062002246565b7f4910fdfa16fed3260ed0e7147f7cc6da11a60208b5b9406d12a635614ffd91435460ff1615620013d657620006728362001a28565b826001600160a01b03166352d1902d6040518163ffffffff1660e01b8152600401602060405180830381865afa92505050801562001433575060408051601f3d908101601f191682019092526200143091810190620023f6565b60015b620014985760405162461bcd60e51b815260206004820152602e60248201527f45524331393637557067726164653a206e657720696d706c656d656e7461746960448201526d6f6e206973206e6f74205555505360901b606482015260840162000626565b6000805160206200393683398151915281146200150a5760405162461bcd60e51b815260206004820152602960248201527f45524331393637557067726164653a20756e737570706f727465642070726f786044820152681a58589b195555525160ba1b606482015260840162000626565b506200067283838362001ac7565b600054610100900460ff16620015425760405162461bcd60e51b8152600401620006269062002410565b6200154c62001af2565b6200089060405180604001604052806018815260200177135054d5115497d050d0d154d4d7d350539051d15351539560421b8152508262001a0c565b6001600160a01b038116620015b15760405162461bcd60e51b815260040162000626906200245b565b80600183604051620015c491906200228c565b908152604080516020928190038301812080546001600160a01b0319166001600160a01b0395861617905584841660008181526002909452918320805460ff191660011790559154630ad6396560e11b835260048301919091527f10e75df11debcdd8425769babc76babb1b082c13be22ba626bfc8e6de393c4c59285928592620100009004909116906315ac72ca90602401602060405180830381865afa15801562001675573d6000803e3d6000fd5b505050506040513d601f19601f820116820180604052508101906200169b9190620023d6565b604051620009cc93929190620024a7565b6000600184604051620016c091906200228c565b908152604051908190036020019020546001600160a01b0316905080620016fb5760405162461bcd60e51b81526004016200062690620022aa565b6001600160a01b03811660009081526002602052604090205460ff16620017365760405162461bcd60e51b815260040162000626906200238f565b60005460405163a745e3df60e01b8152620100009091046001600160a01b03169063a745e3df906200177190849087908790600401620024dc565b600060405180830381600087803b1580156200178c57600080fd5b505af1158015620017a1573d6000803e3d6000fd5b505050507f0ade5313c9e16e7e06de9ab0edde476cc9a6fd51b973b8685c6c5026028a39d28484604051620017d892919062002513565b60405180910390a150505050565b6000600182604051620017fa91906200228c565b908152604051908190036020019020546001600160a01b0316905080620018355760405162461bcd60e51b81526004016200062690620022aa565b6001600160a01b03811660009081526002602052604090819020805460ff1916905551600190620018689084906200228c565b90815260405190819003602001812080546001600160a01b03191690557f0c4eafbc12ea2584eb34031bf52952af5909a5880ef4058cb05c627ae39ffda090620009cc90849062001fa0565b6000600183604051620018c891906200228c565b908152604051908190036020019020546001600160a01b0316905080620019035760405162461bcd60e51b81526004016200062690620022aa565b604051636913045160e01b815281906001600160a01b038216906369130451906200193590309087906004016200253f565b600060405180830381600087803b1580156200195057600080fd5b505af115801562001965573d6000803e3d6000fd5b5050505050505050565b6001600160a01b038116620019985760405162461bcd60e51b815260040162000626906200245b565b80600183604051620019ab91906200228c565b90815260405190819003602001812080546001600160a01b03939093166001600160a01b0319909316929092179091557f8b4ef7d4e5bc8f098e6f637ac0acf4aee47b3f027efea6307264b06b4bc9d29890620009cc908490849062002513565b6200074e82826040518060200160405280600081525062001b70565b6001600160a01b0381163b62001a975760405162461bcd60e51b815260206004820152602d60248201527f455243313936373a206e657720696d706c656d656e746174696f6e206973206e60448201526c1bdd08184818dbdb9d1c9858dd609a1b606482015260840162000626565b6000805160206200393683398151915280546001600160a01b0319166001600160a01b0392909216919091179055565b62001ad28362001c47565b60008251118062001ae05750805b156200067257620010b6838362001c89565b600054610100900460ff1662001b1c5760405162461bcd60e51b8152600401620006269062002410565b60405162001b2a9062001e2b565b604051809103906000f08015801562001b47573d6000803e3d6000fd5b50600060026101000a8154816001600160a01b0302191690836001600160a01b03160217905550565b6001600160a01b03821662001b995760405162461bcd60e51b815260040162000626906200245b565b6000805462001bba9084906201000090046001600160a01b03168462001cb1565b90508060018560405162001bcf91906200228c565b908152604080516020928190038301812080546001600160a01b0319166001600160a01b03958616179055928416600090815260029092529020805460ff191660011790557f10e75df11debcdd8425769babc76babb1b082c13be22ba626bfc8e6de393c4c590620017d890869084908790620024a7565b62001c528162001a28565b6040516001600160a01b038216907fbc7cd75a20ee27fd9adebab32041f755214dbc6bffa90cc0225b39da2e5c2d3b90600090a250565b606062000d428383604051806060016040528060278152602001620039566027913962001cf8565b600083838360405162001cc49062001e39565b62001cd293929190620024dc565b604051809103906000f08015801562001cef573d6000803e3d6000fd5b50949350505050565b6060600080856001600160a01b03168560405162001d1791906200228c565b600060405180830381855af49150503d806000811462001d54576040519150601f19603f3d011682016040523d82523d6000602084013e62001d59565b606091505b509150915062001d6c8683838762001d76565b9695505050505050565b6060831562001dea57825160000362001de2576001600160a01b0385163b62001de25760405162461bcd60e51b815260206004820152601d60248201527f416464726573733a2063616c6c20746f206e6f6e2d636f6e7472616374000000604482015260640162000626565b508162001df6565b62001df6838362001dfe565b949350505050565b81511562001e0f5781518083602001fd5b8060405162461bcd60e51b815260040162000626919062001fa0565b610511806200256683390190565b610ebf8062002a7783390190565b60008083601f84011262001e5a57600080fd5b50813567ffffffffffffffff81111562001e7357600080fd5b60208301915083602082850101111562001e8c57600080fd5b9250929050565b6001600160a01b03811681146200089057600080fd5b60008060006040848603121562001ebf57600080fd5b833567ffffffffffffffff81111562001ed757600080fd5b62001ee58682870162001e47565b909450925050602084013562001efb8162001e93565b809150509250925092565b6000806020838503121562001f1a57600080fd5b823567ffffffffffffffff81111562001f3257600080fd5b62001f408582860162001e47565b90969095509350505050565b60005b8381101562001f6957818101518382015260200162001f4f565b50506000910152565b6000815180845262001f8c81602086016020860162001f4c565b601f01601f19169290920160200192915050565b60208152600062000d42602083018462001f72565b634e487b7160e01b600052604160045260246000fd5b600067ffffffffffffffff8084111562001fe95762001fe962001fb5565b604051601f8501601f19908116603f0116810190828211818310171562002014576200201462001fb5565b816040528093508581528686860111156200202e57600080fd5b858560208301376000602087830101525050509392505050565b6000602082840312156200205b57600080fd5b813567ffffffffffffffff8111156200207357600080fd5b8201601f810184136200208557600080fd5b62001df68482356020840162001fcb565b600060208284031215620020a957600080fd5b813562000d428162001e93565b60008060408385031215620020ca57600080fd5b8235620020d78162001e93565b9150602083013567ffffffffffffffff811115620020f457600080fd5b8301601f810185136200210657600080fd5b620021178582356020840162001fcb565b9150509250929050565b6000806000806000606086880312156200213a57600080fd5b853567ffffffffffffffff808211156200215357600080fd5b6200216189838a0162001e47565b909750955060208801359150620021788262001e93565b909350604087013590808211156200218f57600080fd5b506200219e8882890162001e47565b969995985093965092949392505050565b60008060008060408587031215620021c657600080fd5b843567ffffffffffffffff80821115620021df57600080fd5b620021ed8883890162001e47565b909650945060208701359150808211156200220757600080fd5b50620022168782880162001e47565b95989497509550505050565b6000602082840312156200223557600080fd5b8151801515811462000d4257600080fd5b60208082526026908201527f4d6173746572436f6e74726163747352656769737472793a206163636573732060408201526519195b9a595960d21b606082015260800190565b60008251620022a081846020870162001f4c565b9190910192915050565b6020808252602d908201527f436f6e74726163747352656769737472793a2074686973206d617070696e672060408201526c191bd95cdb89dd08195e1a5cdd609a1b606082015260800190565b6020808252602c908201527f46756e6374696f6e206d7573742062652063616c6c6564207468726f7567682060408201526b19195b1959d85d1958d85b1b60a21b606082015260800190565b6020808252602c908201527f46756e6374696f6e206d7573742062652063616c6c6564207468726f7567682060408201526b6163746976652070726f787960a01b606082015260800190565b60208082526027908201527f436f6e74726163747352656769737472793a206e6f7420612070726f787920636040820152661bdb9d1c9858dd60ca1b606082015260800190565b600060208284031215620023e957600080fd5b815162000d428162001e93565b6000602082840312156200240957600080fd5b5051919050565b6020808252602b908201527f496e697469616c697a61626c653a20636f6e7472616374206973206e6f74206960408201526a6e697469616c697a696e6760a81b606082015260800190565b6020808252602c908201527f436f6e74726163747352656769737472793a207a65726f20616464726573732060408201526b34b9903337b93134b23232b760a11b606082015260800190565b606081526000620024bc606083018662001f72565b6001600160a01b0394851660208401529290931660409091015292915050565b6001600160a01b038481168252831660208201526060604082018190526000906200250a9083018462001f72565b95945050505050565b60408152600062002528604083018562001f72565b905060018060a01b03831660208301529392505050565b6001600160a01b038316815260406020820181905260009062001df69083018462001f7256fe60a060405234801561001057600080fd5b5033806100895760405162461bcd60e51b815260206004820152603360248201527f5065726d616e656e744f776e61626c653a207a65726f2061646472657373206360448201527f616e206e6f7420626520746865206f776e657200000000000000000000000000606482015260840160405180910390fd5b6001600160a01b031660805260805161045b6100b66000396000818160770152610270015261045b6000f3fe608060405234801561001057600080fd5b50600436106100415760003560e01c806315ac72ca146100465780638da5cb5b14610075578063a745e3df1461009b575b600080fd5b610059610054366004610312565b6100b0565b6040516001600160a01b03909116815260200160405180910390f35b7f0000000000000000000000000000000000000000000000000000000000000000610059565b6100ae6100a9366004610336565b610197565b005b6000806000836001600160a01b03166040516100d690635c60da1b60e01b815260040190565b600060405180830381855afa9150503d8060008114610111576040519150601f19603f3d011682016040523d82523d6000602084013e610116565b606091505b50915091508161017b5760405162461bcd60e51b815260206004820152602560248201527f5472616e73706172656e7450726f787955706772616465723a206e6f7420612060448201526470726f787960d81b60648201526084015b60405180910390fd5b8080602001905181019061018f91906103c8565b949350505050565b61019f61026e565b801561020c5760405163278f794360e11b81526001600160a01b03851690634f1ef286906101d5908690869086906004016103e5565b600060405180830381600087803b1580156101ef57600080fd5b505af1158015610203573d6000803e3d6000fd5b50505050610268565b604051631b2ce7f360e11b81526001600160a01b038481166004830152851690633659cfe690602401600060405180830381600087803b15801561024f57600080fd5b505af1158015610263573d6000803e3d6000fd5b505050505b50505050565b7f00000000000000000000000000000000000000000000000000000000000000006001600160a01b031633146102f85760405162461bcd60e51b815260206004820152602960248201527f5065726d616e656e744f776e61626c653a2063616c6c6572206973206e6f74206044820152683a34329037bbb732b960b91b6064820152608401610172565b565b6001600160a01b038116811461030f57600080fd5b50565b60006020828403121561032457600080fd5b813561032f816102fa565b9392505050565b6000806000806060858703121561034c57600080fd5b8435610357816102fa565b93506020850135610367816102fa565b9250604085013567ffffffffffffffff8082111561038457600080fd5b818701915087601f83011261039857600080fd5b8135818111156103a757600080fd5b8860208285010111156103b957600080fd5b95989497505060200194505050565b6000602082840312156103da57600080fd5b815161032f816102fa565b6001600160a01b03841681526040602082018190528101829052818360608301376000818301606090810191909152601f909201601f191601019291505056fea2646970667358221220543c48338afaecd4b818f69638c3b71094909bbc40b56fa92e7aafbf9565c35d64736f6c63430008110033608060405260405162000ebf38038062000ebf833981016040819052620000269162000497565b828162000036828260006200004d565b50620000449050826200008a565b505050620005ca565b6200005883620000e5565b600082511180620000665750805b1562000085576200008383836200012760201b620001691760201c565b505b505050565b7f7e644d79422f17c01e4894b5f4f588d331ebfa28653d42ae832dc59e38c9798f620000b562000156565b604080516001600160a01b03928316815291841660208301520160405180910390a1620000e2816200018f565b50565b620000f08162000244565b6040516001600160a01b038216907fbc7cd75a20ee27fd9adebab32041f755214dbc6bffa90cc0225b39da2e5c2d3b90600090a250565b60606200014f838360405180606001604052806027815260200162000e9860279139620002f8565b9392505050565b60006200018060008051602062000e7883398151915260001b6200037760201b620001951760201c565b546001600160a01b0316919050565b6001600160a01b038116620001fa5760405162461bcd60e51b815260206004820152602660248201527f455243313936373a206e65772061646d696e20697320746865207a65726f206160448201526564647265737360d01b60648201526084015b60405180910390fd5b806200022360008051602062000e7883398151915260001b6200037760201b620001951760201c565b80546001600160a01b0319166001600160a01b039290921691909117905550565b6200025a816200037a60201b620001981760201c565b620002be5760405162461bcd60e51b815260206004820152602d60248201527f455243313936373a206e657720696d706c656d656e746174696f6e206973206e60448201526c1bdd08184818dbdb9d1c9858dd609a1b6064820152608401620001f1565b80620002237f360894a13ba1a3210667c828492db98dca3e2076cc3735a920a3ca505d382bbc60001b6200037760201b620001951760201c565b6060600080856001600160a01b03168560405162000317919062000577565b600060405180830381855af49150503d806000811462000354576040519150601f19603f3d011682016040523d82523d6000602084013e62000359565b606091505b5090925090506200036d8683838762000389565b9695505050505050565b90565b6001600160a01b03163b151590565b60608315620003fd578251600003620003f5576001600160a01b0385163b620003f55760405162461bcd60e51b815260206004820152601d60248201527f416464726573733a2063616c6c20746f206e6f6e2d636f6e74726163740000006044820152606401620001f1565b508162000409565b62000409838362000411565b949350505050565b815115620004225781518083602001fd5b8060405162461bcd60e51b8152600401620001f1919062000595565b80516001600160a01b03811681146200045657600080fd5b919050565b634e487b7160e01b600052604160045260246000fd5b60005b838110156200048e57818101518382015260200162000474565b50506000910152565b600080600060608486031215620004ad57600080fd5b620004b8846200043e565b9250620004c8602085016200043e565b60408501519092506001600160401b0380821115620004e657600080fd5b818601915086601f830112620004fb57600080fd5b8151818111156200051057620005106200045b565b604051601f8201601f19908116603f011681019083821181831017156200053b576200053b6200045b565b816040528281528960208487010111156200055557600080fd5b6200056883602083016020880162000471565b80955050505050509250925092565b600082516200058b81846020870162000471565b9190910192915050565b6020815260008251806020840152620005b681604085016020870162000471565b601f01601f19169190910160400192915050565b61089e80620005da6000396000f3fe60806040523661001357610011610017565b005b6100115b61001f6101a7565b6001600160a01b0316330361015f5760606001600160e01b0319600035166364d3180d60e11b810161005a576100536101da565b9150610157565b63587086bd60e11b6001600160e01b031982160161007a57610053610231565b63070d7c6960e41b6001600160e01b031982160161009a57610053610277565b621eb96f60e61b6001600160e01b03198216016100b9576100536102a8565b63a39f25e560e01b6001600160e01b03198216016100d9576100536102e8565b60405162461bcd60e51b815260206004820152604260248201527f5472616e73706172656e745570677261646561626c6550726f78793a2061646d60448201527f696e2063616e6e6f742066616c6c6261636b20746f2070726f78792074617267606482015261195d60f21b608482015260a4015b60405180910390fd5b815160208301f35b6101676102fc565b565b606061018e83836040518060600160405280602781526020016108426027913961030c565b9392505050565b90565b6001600160a01b03163b151590565b60007fb53127684a568b3173ae13b9f8a6016e243e63b6e8ee1178d6a717850b5d61035b546001600160a01b0316919050565b60606101e4610384565b60006101f33660048184610695565b81019061020091906106db565b905061021d8160405180602001604052806000815250600061038f565b505060408051602081019091526000815290565b60606000806102433660048184610695565b810190610250919061070c565b915091506102608282600161038f565b604051806020016040528060008152509250505090565b6060610281610384565b60006102903660048184610695565b81019061029d91906106db565b905061021d816103bb565b60606102b2610384565b60006102bc6101a7565b604080516001600160a01b03831660208201529192500160405160208183030381529060405291505090565b60606102f2610384565b60006102bc610412565b610167610307610412565b610421565b6060600080856001600160a01b03168560405161032991906107f2565b600060405180830381855af49150503d8060008114610364576040519150601f19603f3d011682016040523d82523d6000602084013e610369565b606091505b509150915061037a86838387610445565b9695505050505050565b341561016757600080fd5b610398836104c6565b6000825111806103a55750805b156103b6576103b48383610169565b505b505050565b7f7e644d79422f17c01e4894b5f4f588d331ebfa28653d42ae832dc59e38c9798f6103e46101a7565b604080516001600160a01b03928316815291841660208301520160405180910390a161040f81610506565b50565b600061041c6105af565b905090565b3660008037600080366000845af43d6000803e808015610440573d6000f35b3d6000fd5b606083156104b45782516000036104ad576001600160a01b0385163b6104ad5760405162461bcd60e51b815260206004820152601d60248201527f416464726573733a2063616c6c20746f206e6f6e2d636f6e7472616374000000604482015260640161014e565b50816104be565b6104be83836105d7565b949350505050565b6104cf81610601565b6040516001600160a01b038216907fbc7cd75a20ee27fd9adebab32041f755214dbc6bffa90cc0225b39da2e5c2d3b90600090a250565b6001600160a01b03811661056b5760405162461bcd60e51b815260206004820152602660248201527f455243313936373a206e65772061646d696e20697320746865207a65726f206160448201526564647265737360d01b606482015260840161014e565b807fb53127684a568b3173ae13b9f8a6016e243e63b6e8ee1178d6a717850b5d61035b80546001600160a01b0319166001600160a01b039290921691909117905550565b60007f360894a13ba1a3210667c828492db98dca3e2076cc3735a920a3ca505d382bbc6101cb565b8151156105e75781518083602001fd5b8060405162461bcd60e51b815260040161014e919061080e565b6001600160a01b0381163b61066e5760405162461bcd60e51b815260206004820152602d60248201527f455243313936373a206e657720696d706c656d656e746174696f6e206973206e60448201526c1bdd08184818dbdb9d1c9858dd609a1b606482015260840161014e565b807f360894a13ba1a3210667c828492db98dca3e2076cc3735a920a3ca505d382bbc61058e565b600080858511156106a557600080fd5b838611156106b257600080fd5b5050820193919092039150565b80356001600160a01b03811681146106d657600080fd5b919050565b6000602082840312156106ed57600080fd5b61018e826106bf565b634e487b7160e01b600052604160045260246000fd5b6000806040838503121561071f57600080fd5b610728836106bf565b9150602083013567ffffffffffffffff8082111561074557600080fd5b818501915085601f83011261075957600080fd5b81358181111561076b5761076b6106f6565b604051601f8201601f19908116603f01168101908382118183101715610793576107936106f6565b816040528281528860208487010111156107ac57600080fd5b8260208601602083013760006020848301015280955050505050509250929050565b60005b838110156107e95781810151838201526020016107d1565b50506000910152565b600082516108048184602087016107ce565b9190910192915050565b602081526000825180602084015261082d8160408501602087016107ce565b601f01601f1916919091016040019291505056fe416464726573733a206c6f772d6c6576656c2064656c65676174652063616c6c206661696c6564a2646970667358221220fb93d010679553c8505fc6b5f80cc81f93a1bd54a296aaab151f4bc9f6bb23ef64736f6c63430008110033b53127684a568b3173ae13b9f8a6016e243e63b6e8ee1178d6a717850b5d6103416464726573733a206c6f772d6c6576656c2064656c65676174652063616c6c206661696c6564360894a13ba1a3210667c828492db98dca3e2076cc3735a920a3ca505d382bbc416464726573733a206c6f772d6c6576656c2064656c65676174652063616c6c206661696c6564a26469706673582212206285df06cbf47af6c5b1f90857b2b3cb74d3010c3b47c764aa5035caaa50961f64736f6c63430008110033",
  "linkReferences": {},
  "deployedLinkReferences": {}
}